{
  "_format": "hh-sol-artifact-1",
  "contractName": "NFT",
  "sourceName": "contracts/NFT.sol",
  "abi": [
    {
      "inputs": [
        {
          "internalType": "string",
          "name": "_name",
          "type": "string"
        },
        {
          "internalType": "string",
          "name": "_symbol",
          "type": "string"
        }
      ],
      "stateMutability": "nonpayable",
      "type": "constructor"
    },
    {
      "anonymous": false,
      "inputs": [
        {
          "indexed": true,
          "internalType": "address",
          "name": "owner",
          "type": "address"
        },
        {
          "indexed": true,
          "internalType": "address",
          "name": "approved",
          "type": "address"
        },
        {
          "indexed": true,
          "internalType": "uint256",
          "name": "tokenId",
          "type": "uint256"
        }
      ],
      "name": "Approval",
      "type": "event"
    },
    {
      "anonymous": false,
      "inputs": [
        {
          "indexed": true,
          "internalType": "address",
          "name": "owner",
          "type": "address"
        },
        {
          "indexed": true,
          "internalType": "address",
          "name": "operator",
          "type": "address"
        },
        {
          "indexed": false,
          "internalType": "bool",
          "name": "approved",
          "type": "bool"
        }
      ],
      "name": "ApprovalForAll",
      "type": "event"
    },
    {
      "anonymous": false,
      "inputs": [
        {
          "indexed": true,
          "internalType": "address",
          "name": "from",
          "type": "address"
        },
        {
          "indexed": true,
          "internalType": "address",
          "name": "to",
          "type": "address"
        },
        {
          "indexed": true,
          "internalType": "uint256",
          "name": "tokenId",
          "type": "uint256"
        }
      ],
      "name": "Transfer",
      "type": "event"
    },
    {
      "inputs": [
        {
          "internalType": "address",
          "name": "to",
          "type": "address"
        },
        {
          "internalType": "uint256",
          "name": "tokenId",
          "type": "uint256"
        }
      ],
      "name": "approve",
      "outputs": [],
      "stateMutability": "nonpayable",
      "type": "function"
    },
    {
      "inputs": [
        {
          "internalType": "address",
          "name": "owner",
          "type": "address"
        }
      ],
      "name": "balanceOf",
      "outputs": [
        {
          "internalType": "uint256",
          "name": "",
          "type": "uint256"
        }
      ],
      "stateMutability": "view",
      "type": "function"
    },
    {
      "inputs": [],
      "name": "contractURI",
      "outputs": [
        {
          "internalType": "string",
          "name": "",
          "type": "string"
        }
      ],
      "stateMutability": "view",
      "type": "function"
    },
    {
      "inputs": [
        {
          "internalType": "uint256",
          "name": "tokenId",
          "type": "uint256"
        }
      ],
      "name": "getApproved",
      "outputs": [
        {
          "internalType": "address",
          "name": "",
          "type": "address"
        }
      ],
      "stateMutability": "view",
      "type": "function"
    },
    {
      "inputs": [
        {
          "internalType": "address",
          "name": "owner",
          "type": "address"
        },
        {
          "internalType": "address",
          "name": "operator",
          "type": "address"
        }
      ],
      "name": "isApprovedForAll",
      "outputs": [
        {
          "internalType": "bool",
          "name": "",
          "type": "bool"
        }
      ],
      "stateMutability": "view",
      "type": "function"
    },
    {
      "inputs": [
        {
          "internalType": "address",
          "name": "recipient",
          "type": "address"
        },
        {
          "internalType": "string",
          "name": "uri",
          "type": "string"
        },
        {
          "internalType": "uint96",
          "name": "royalty",
          "type": "uint96"
        }
      ],
      "name": "mintNFT",
      "outputs": [
        {
          "internalType": "uint256",
          "name": "",
          "type": "uint256"
        }
      ],
      "stateMutability": "nonpayable",
      "type": "function"
    },
    {
      "inputs": [],
      "name": "name",
      "outputs": [
        {
          "internalType": "string",
          "name": "",
          "type": "string"
        }
      ],
      "stateMutability": "view",
      "type": "function"
    },
    {
      "inputs": [
        {
          "internalType": "uint256",
          "name": "tokenId",
          "type": "uint256"
        }
      ],
      "name": "ownerOf",
      "outputs": [
        {
          "internalType": "address",
          "name": "",
          "type": "address"
        }
      ],
      "stateMutability": "view",
      "type": "function"
    },
    {
      "inputs": [
        {
          "internalType": "uint256",
          "name": "_tokenId",
          "type": "uint256"
        },
        {
          "internalType": "uint256",
          "name": "_salePrice",
          "type": "uint256"
        }
      ],
      "name": "royaltyInfo",
      "outputs": [
        {
          "internalType": "address",
          "name": "",
          "type": "address"
        },
        {
          "internalType": "uint256",
          "name": "",
          "type": "uint256"
        }
      ],
      "stateMutability": "view",
      "type": "function"
    },
    {
      "inputs": [
        {
          "internalType": "address",
          "name": "from",
          "type": "address"
        },
        {
          "internalType": "address",
          "name": "to",
          "type": "address"
        },
        {
          "internalType": "uint256",
          "name": "tokenId",
          "type": "uint256"
        }
      ],
      "name": "safeTransferFrom",
      "outputs": [],
      "stateMutability": "nonpayable",
      "type": "function"
    },
    {
      "inputs": [
        {
          "internalType": "address",
          "name": "from",
          "type": "address"
        },
        {
          "internalType": "address",
          "name": "to",
          "type": "address"
        },
        {
          "internalType": "uint256",
          "name": "tokenId",
          "type": "uint256"
        },
        {
          "internalType": "bytes",
          "name": "_data",
          "type": "bytes"
        }
      ],
      "name": "safeTransferFrom",
      "outputs": [],
      "stateMutability": "nonpayable",
      "type": "function"
    },
    {
      "inputs": [
        {
          "internalType": "address",
          "name": "operator",
          "type": "address"
        },
        {
          "internalType": "bool",
          "name": "approved",
          "type": "bool"
        }
      ],
      "name": "setApprovalForAll",
      "outputs": [],
      "stateMutability": "nonpayable",
      "type": "function"
    },
    {
      "inputs": [
        {
          "internalType": "bytes4",
          "name": "interfaceId",
          "type": "bytes4"
        }
      ],
      "name": "supportsInterface",
      "outputs": [
        {
          "internalType": "bool",
          "name": "",
          "type": "bool"
        }
      ],
      "stateMutability": "view",
      "type": "function"
    },
    {
      "inputs": [],
      "name": "symbol",
      "outputs": [
        {
          "internalType": "string",
          "name": "",
          "type": "string"
        }
      ],
      "stateMutability": "view",
      "type": "function"
    },
    {
      "inputs": [
        {
          "internalType": "uint256",
          "name": "tokenId",
          "type": "uint256"
        }
      ],
      "name": "tokenURI",
      "outputs": [
        {
          "internalType": "string",
          "name": "",
          "type": "string"
        }
      ],
      "stateMutability": "view",
      "type": "function"
    },
    {
      "inputs": [
        {
          "internalType": "address",
          "name": "from",
          "type": "address"
        },
        {
          "internalType": "address",
          "name": "to",
          "type": "address"
        },
        {
          "internalType": "uint256",
          "name": "tokenId",
          "type": "uint256"
        }
      ],
      "name": "transferFrom",
      "outputs": [],
      "stateMutability": "nonpayable",
      "type": "function"
    }
  ],
  "bytecode": "0x60806040523480156200001157600080fd5b506040516200370438038062003704833981810160405281019062000037919062000197565b818181600290805190602001906200005192919062000075565b5080600390805190602001906200006a92919062000075565b50505050506200037a565b82805462000083906200029f565b90600052602060002090601f016020900481019282620000a75760008555620000f3565b82601f10620000c257805160ff1916838001178555620000f3565b82800160010185558215620000f3579182015b82811115620000f2578251825591602001919060010190620000d5565b5b50905062000102919062000106565b5090565b5b808211156200012157600081600090555060010162000107565b5090565b60006200013c620001368462000233565b6200020a565b9050828152602081018484840111156200015557600080fd5b6200016284828562000269565b509392505050565b600082601f8301126200017c57600080fd5b81516200018e84826020860162000125565b91505092915050565b60008060408385031215620001ab57600080fd5b600083015167ffffffffffffffff811115620001c657600080fd5b620001d4858286016200016a565b925050602083015167ffffffffffffffff811115620001f257600080fd5b62000200858286016200016a565b9150509250929050565b60006200021662000229565b9050620002248282620002d5565b919050565b6000604051905090565b600067ffffffffffffffff8211156200025157620002506200033a565b5b6200025c8262000369565b9050602081019050919050565b60005b83811015620002895780820151818401526020810190506200026c565b8381111562000299576000848401525b50505050565b60006002820490506001821680620002b857607f821691505b60208210811415620002cf57620002ce6200030b565b5b50919050565b620002e08262000369565b810181811067ffffffffffffffff821117156200030257620003016200033a565b5b80604052505050565b7f4e487b7100000000000000000000000000000000000000000000000000000000600052602260045260246000fd5b7f4e487b7100000000000000000000000000000000000000000000000000000000600052604160045260246000fd5b6000601f19601f8301169050919050565b61337a806200038a6000396000f3fe608060405234801561001057600080fd5b50600436106101005760003560e01c80636352211e11610097578063b88d4fde11610066578063b88d4fde146102d2578063c87b56dd146102ee578063e8a3d4851461031e578063e985e9c51461033c57610100565b80636352211e1461023857806370a082311461026857806395d89b4114610298578063a22cb465146102b657610100565b806323b872dd116100d357806323b872dd1461019f5780632a55205a146101bb5780633758933f146101ec57806342842e0e1461021c57610100565b806301ffc9a71461010557806306fdde0314610135578063081812fc14610153578063095ea7b314610183575b600080fd5b61011f600480360381019061011a919061223b565b61036c565b60405161012c91906126ec565b60405180910390f35b61013d61037e565b60405161014a9190612707565b60405180910390f35b61016d6004803603810190610168919061228d565b610410565b60405161017a919061265c565b60405180910390f35b61019d600480360381019061019891906121ff565b610495565b005b6101b960048036038101906101b49190612092565b6105ad565b005b6101d560048036038101906101d091906122b6565b61060d565b6040516101e39291906126c3565b60405180910390f35b61020660048036038101906102019190612198565b6107f8565b6040516102139190612969565b60405180910390f35b61023660048036038101906102319190612092565b610852565b005b610252600480360381019061024d919061228d565b610872565b60405161025f919061265c565b60405180910390f35b610282600480360381019061027d919061202d565b610924565b60405161028f9190612969565b60405180910390f35b6102a06109dc565b6040516102ad9190612707565b60405180910390f35b6102d060048036038101906102cb919061215c565b610a6e565b005b6102ec60048036038101906102e791906120e1565b610a84565b005b6103086004803603810190610303919061228d565b610ae6565b6040516103159190612707565b60405180910390f35b610326610af8565b6040516103339190612707565b60405180910390f35b61035660048036038101906103519190612056565b610b8a565b60405161036391906126ec565b60405180910390f35b600061037782610c1e565b9050919050565b60606002805461038d90612c31565b80601f01602080910402602001604051908101604052809291908181526020018280546103b990612c31565b80156104065780601f106103db57610100808354040283529160200191610406565b820191906000526020600020905b8154815290600101906020018083116103e957829003601f168201915b5050505050905090565b600061041b82610c30565b61045a576040517f08c379a0000000000000000000000000000000000000000000000000000000008152600401610451906128a9565b60405180910390fd5b6006600083815260200190815260200160002060009054906101000a900473ffffffffffffffffffffffffffffffffffffffff169050919050565b60006104a082610872565b90508073ffffffffffffffffffffffffffffffffffffffff168373ffffffffffffffffffffffffffffffffffffffff161415610511576040517f08c379a0000000000000000000000000000000000000000000000000000000008152600401610508906128e9565b60405180910390fd5b8073ffffffffffffffffffffffffffffffffffffffff16610530610c9c565b73ffffffffffffffffffffffffffffffffffffffff16148061055f575061055e81610559610c9c565b610b8a565b5b61059e576040517f08c379a0000000000000000000000000000000000000000000000000000000008152600401610595906127e9565b60405180910390fd5b6105a88383610ca4565b505050565b6105be6105b8610c9c565b82610d5d565b6105fd576040517f08c379a00000000000000000000000000000000000000000000000000000000081526004016105f490612909565b60405180910390fd5b610608838383610e3b565b505050565b6000806000600160008681526020019081526020016000206040518060400160405290816000820160009054906101000a900473ffffffffffffffffffffffffffffffffffffffff1673ffffffffffffffffffffffffffffffffffffffff1673ffffffffffffffffffffffffffffffffffffffff1681526020016000820160149054906101000a90046bffffffffffffffffffffffff166bffffffffffffffffffffffff166bffffffffffffffffffffffff16815250509050600073ffffffffffffffffffffffffffffffffffffffff16816000015173ffffffffffffffffffffffffffffffffffffffff1614156107a35760006040518060400160405290816000820160009054906101000a900473ffffffffffffffffffffffffffffffffffffffff1673ffffffffffffffffffffffffffffffffffffffff1673ffffffffffffffffffffffffffffffffffffffff1681526020016000820160149054906101000a90046bffffffffffffffffffffffff166bffffffffffffffffffffffff166bffffffffffffffffffffffff168152505090505b60006107ad6110a2565b6bffffffffffffffffffffffff1682602001516bffffffffffffffffffffffff16866107d99190612ad5565b6107e39190612aa4565b90508160000151819350935050509250929050565b600082600a9080519060200190610810929190611e3c565b5061081b60096110ac565b600061082760096110c2565b905061083385826110d0565b61083d81856110ee565b6108478584611162565b809150509392505050565b61086d83838360405180602001604052806000815250610a84565b505050565b6000806004600084815260200190815260200160002060009054906101000a900473ffffffffffffffffffffffffffffffffffffffff169050600073ffffffffffffffffffffffffffffffffffffffff168173ffffffffffffffffffffffffffffffffffffffff16141561091b576040517f08c379a000000000000000000000000000000000000000000000000000000000815260040161091290612829565b60405180910390fd5b80915050919050565b60008073ffffffffffffffffffffffffffffffffffffffff168273ffffffffffffffffffffffffffffffffffffffff161415610995576040517f08c379a000000000000000000000000000000000000000000000000000000000815260040161098c90612809565b60405180910390fd5b600560008373ffffffffffffffffffffffffffffffffffffffff1673ffffffffffffffffffffffffffffffffffffffff168152602001908152602001600020549050919050565b6060600380546109eb90612c31565b80601f0160208091040260200160405190810160405280929190818152602001828054610a1790612c31565b8015610a645780601f10610a3957610100808354040283529160200191610a64565b820191906000526020600020905b815481529060010190602001808311610a4757829003601f168201915b5050505050905090565b610a80610a79610c9c565b83836112f7565b5050565b610a95610a8f610c9c565b83610d5d565b610ad4576040517f08c379a0000000000000000000000000000000000000000000000000000000008152600401610acb90612909565b60405180910390fd5b610ae084848484611464565b50505050565b6060610af1826114c0565b9050919050565b6060600a8054610b0790612c31565b80601f0160208091040260200160405190810160405280929190818152602001828054610b3390612c31565b8015610b805780601f10610b5557610100808354040283529160200191610b80565b820191906000526020600020905b815481529060010190602001808311610b6357829003601f168201915b5050505050905090565b6000600760008473ffffffffffffffffffffffffffffffffffffffff1673ffffffffffffffffffffffffffffffffffffffff16815260200190815260200160002060008373ffffffffffffffffffffffffffffffffffffffff1673ffffffffffffffffffffffffffffffffffffffff16815260200190815260200160002060009054906101000a900460ff16905092915050565b6000610c2982611612565b9050919050565b60008073ffffffffffffffffffffffffffffffffffffffff166004600084815260200190815260200160002060009054906101000a900473ffffffffffffffffffffffffffffffffffffffff1673ffffffffffffffffffffffffffffffffffffffff1614159050919050565b600033905090565b816006600083815260200190815260200160002060006101000a81548173ffffffffffffffffffffffffffffffffffffffff021916908373ffffffffffffffffffffffffffffffffffffffff160217905550808273ffffffffffffffffffffffffffffffffffffffff16610d1783610872565b73ffffffffffffffffffffffffffffffffffffffff167f8c5be1e5ebec7d5bd14f71427d1e84f3dd0314c0f7b2291e5b200ac8c7c3b92560405160405180910390a45050565b6000610d6882610c30565b610da7576040517f08c379a0000000000000000000000000000000000000000000000000000000008152600401610d9e906127c9565b60405180910390fd5b6000610db283610872565b90508073ffffffffffffffffffffffffffffffffffffffff168473ffffffffffffffffffffffffffffffffffffffff161480610e2157508373ffffffffffffffffffffffffffffffffffffffff16610e0984610410565b73ffffffffffffffffffffffffffffffffffffffff16145b80610e325750610e318185610b8a565b5b91505092915050565b8273ffffffffffffffffffffffffffffffffffffffff16610e5b82610872565b73ffffffffffffffffffffffffffffffffffffffff1614610eb1576040517f08c379a0000000000000000000000000000000000000000000000000000000008152600401610ea890612749565b60405180910390fd5b600073ffffffffffffffffffffffffffffffffffffffff168273ffffffffffffffffffffffffffffffffffffffff161415610f21576040517f08c379a0000000000000000000000000000000000000000000000000000000008152600401610f1890612789565b60405180910390fd5b610f2c8383836116f4565b610f37600082610ca4565b6001600560008573ffffffffffffffffffffffffffffffffffffffff1673ffffffffffffffffffffffffffffffffffffffff1681526020019081526020016000206000828254610f879190612b2f565b925050819055506001600560008473ffffffffffffffffffffffffffffffffffffffff1673ffffffffffffffffffffffffffffffffffffffff1681526020019081526020016000206000828254610fde9190612a4e565b92505081905550816004600083815260200190815260200160002060006101000a81548173ffffffffffffffffffffffffffffffffffffffff021916908373ffffffffffffffffffffffffffffffffffffffff160217905550808273ffffffffffffffffffffffffffffffffffffffff168473ffffffffffffffffffffffffffffffffffffffff167fddf252ad1be2c89b69c2b068fc378daa952ba7f163c4a11628f55a4df523b3ef60405160405180910390a461109d8383836116f9565b505050565b6000612710905090565b6001816000016000828254019250508190555050565b600081600001549050919050565b6110ea8282604051806020016040528060008152506116fe565b5050565b6110f782610c30565b611136576040517f08c379a000000000000000000000000000000000000000000000000000000000815260040161112d90612849565b60405180910390fd5b8060086000848152602001908152602001600020908051906020019061115d929190611e3c565b505050565b61116a6110a2565b6bffffffffffffffffffffffff16816bffffffffffffffffffffffff1611156111c8576040517f08c379a00000000000000000000000000000000000000000000000000000000081526004016111bf90612929565b60405180910390fd5b600073ffffffffffffffffffffffffffffffffffffffff168273ffffffffffffffffffffffffffffffffffffffff161415611238576040517f08c379a000000000000000000000000000000000000000000000000000000000815260040161122f90612949565b60405180910390fd5b60405180604001604052808373ffffffffffffffffffffffffffffffffffffffff168152602001826bffffffffffffffffffffffff168152506000808201518160000160006101000a81548173ffffffffffffffffffffffffffffffffffffffff021916908373ffffffffffffffffffffffffffffffffffffffff16021790555060208201518160000160146101000a8154816bffffffffffffffffffffffff02191690836bffffffffffffffffffffffff1602179055509050505050565b8173ffffffffffffffffffffffffffffffffffffffff168373ffffffffffffffffffffffffffffffffffffffff161415611366576040517f08c379a000000000000000000000000000000000000000000000000000000000815260040161135d906127a9565b60405180910390fd5b80600760008573ffffffffffffffffffffffffffffffffffffffff1673ffffffffffffffffffffffffffffffffffffffff16815260200190815260200160002060008473ffffffffffffffffffffffffffffffffffffffff1673ffffffffffffffffffffffffffffffffffffffff16815260200190815260200160002060006101000a81548160ff0219169083151502179055508173ffffffffffffffffffffffffffffffffffffffff168373ffffffffffffffffffffffffffffffffffffffff167f17307eab39ab6107e8899845ad3d59bd9653f200f220920489ca2b5937696c318360405161145791906126ec565b60405180910390a3505050565b61146f848484610e3b565b61147b84848484611759565b6114ba576040517f08c379a00000000000000000000000000000000000000000000000000000000081526004016114b190612729565b60405180910390fd5b50505050565b60606114cb82610c30565b61150a576040517f08c379a000000000000000000000000000000000000000000000000000000000815260040161150190612889565b60405180910390fd5b600060086000848152602001908152602001600020805461152a90612c31565b80601f016020809104026020016040519081016040528092919081815260200182805461155690612c31565b80156115a35780601f10611578576101008083540402835291602001916115a3565b820191906000526020600020905b81548152906001019060200180831161158657829003601f168201915b5050505050905060006115b46118f0565b90506000815114156115ca57819250505061160d565b6000825111156115ff5780826040516020016115e7929190612638565b6040516020818303038152906040529250505061160d565b61160884611907565b925050505b919050565b60007f80ac58cd000000000000000000000000000000000000000000000000000000007bffffffffffffffffffffffffffffffffffffffffffffffffffffffff1916827bffffffffffffffffffffffffffffffffffffffffffffffffffffffff191614806116dd57507f5b5e139f000000000000000000000000000000000000000000000000000000007bffffffffffffffffffffffffffffffffffffffffffffffffffffffff1916827bffffffffffffffffffffffffffffffffffffffffffffffffffffffff1916145b806116ed57506116ec826119ae565b5b9050919050565b505050565b505050565b6117088383611a28565b6117156000848484611759565b611754576040517f08c379a000000000000000000000000000000000000000000000000000000000815260040161174b90612729565b60405180910390fd5b505050565b600061177a8473ffffffffffffffffffffffffffffffffffffffff16611c02565b156118e3578373ffffffffffffffffffffffffffffffffffffffff1663150b7a026117a3610c9c565b8786866040518563ffffffff1660e01b81526004016117c59493929190612677565b602060405180830381600087803b1580156117df57600080fd5b505af192505050801561181057506040513d601f19601f8201168201806040525081019061180d9190612264565b60015b611893573d8060008114611840576040519150601f19603f3d011682016040523d82523d6000602084013e611845565b606091505b5060008151141561188b576040517f08c379a000000000000000000000000000000000000000000000000000000000815260040161188290612729565b60405180910390fd5b805181602001fd5b63150b7a0260e01b7bffffffffffffffffffffffffffffffffffffffffffffffffffffffff1916817bffffffffffffffffffffffffffffffffffffffffffffffffffffffff1916149150506118e8565b600190505b949350505050565b606060405180602001604052806000815250905090565b606061191282610c30565b611951576040517f08c379a0000000000000000000000000000000000000000000000000000000008152600401611948906128c9565b60405180910390fd5b600061195b6118f0565b9050600081511161197b57604051806020016040528060008152506119a6565b8061198584611c25565b604051602001611996929190612638565b6040516020818303038152906040525b915050919050565b60007f2a55205a000000000000000000000000000000000000000000000000000000007bffffffffffffffffffffffffffffffffffffffffffffffffffffffff1916827bffffffffffffffffffffffffffffffffffffffffffffffffffffffff19161480611a215750611a2082611dd2565b5b9050919050565b600073ffffffffffffffffffffffffffffffffffffffff168273ffffffffffffffffffffffffffffffffffffffff161415611a98576040517f08c379a0000000000000000000000000000000000000000000000000000000008152600401611a8f90612869565b60405180910390fd5b611aa181610c30565b15611ae1576040517f08c379a0000000000000000000000000000000000000000000000000000000008152600401611ad890612769565b60405180910390fd5b611aed600083836116f4565b6001600560008473ffffffffffffffffffffffffffffffffffffffff1673ffffffffffffffffffffffffffffffffffffffff1681526020019081526020016000206000828254611b3d9190612a4e565b92505081905550816004600083815260200190815260200160002060006101000a81548173ffffffffffffffffffffffffffffffffffffffff021916908373ffffffffffffffffffffffffffffffffffffffff160217905550808273ffffffffffffffffffffffffffffffffffffffff16600073ffffffffffffffffffffffffffffffffffffffff167fddf252ad1be2c89b69c2b068fc378daa952ba7f163c4a11628f55a4df523b3ef60405160405180910390a4611bfe600083836116f9565b5050565b6000808273ffffffffffffffffffffffffffffffffffffffff163b119050919050565b60606000821415611c6d576040518060400160405280600181526020017f30000000000000000000000000000000000000000000000000000000000000008152509050611dcd565b600082905060005b60008214611c9f578080611c8890612c94565b915050600a82611c989190612aa4565b9150611c75565b60008167ffffffffffffffff811115611ce1577f4e487b7100000000000000000000000000000000000000000000000000000000600052604160045260246000fd5b6040519080825280601f01601f191660200182016040528015611d135781602001600182028036833780820191505090505b5090505b60008514611dc657600182611d2c9190612b2f565b9150600a85611d3b9190612cdd565b6030611d479190612a4e565b60f81b818381518110611d83577f4e487b7100000000000000000000000000000000000000000000000000000000600052603260045260246000fd5b60200101907effffffffffffffffffffffffffffffffffffffffffffffffffffffffffffff1916908160001a905350600a85611dbf9190612aa4565b9450611d17565b8093505050505b919050565b60007f01ffc9a7000000000000000000000000000000000000000000000000000000007bffffffffffffffffffffffffffffffffffffffffffffffffffffffff1916827bffffffffffffffffffffffffffffffffffffffffffffffffffffffff1916149050919050565b828054611e4890612c31565b90600052602060002090601f016020900481019282611e6a5760008555611eb1565b82601f10611e8357805160ff1916838001178555611eb1565b82800160010185558215611eb1579182015b82811115611eb0578251825591602001919060010190611e95565b5b509050611ebe9190611ec2565b5090565b5b80821115611edb576000816000905550600101611ec3565b5090565b6000611ef2611eed846129a9565b612984565b905082815260208101848484011115611f0a57600080fd5b611f15848285612bef565b509392505050565b6000611f30611f2b846129da565b612984565b905082815260208101848484011115611f4857600080fd5b611f53848285612bef565b509392505050565b600081359050611f6a816132d1565b92915050565b600081359050611f7f816132e8565b92915050565b600081359050611f94816132ff565b92915050565b600081519050611fa9816132ff565b92915050565b600082601f830112611fc057600080fd5b8135611fd0848260208601611edf565b91505092915050565b600082601f830112611fea57600080fd5b8135611ffa848260208601611f1d565b91505092915050565b60008135905061201281613316565b92915050565b6000813590506120278161332d565b92915050565b60006020828403121561203f57600080fd5b600061204d84828501611f5b565b91505092915050565b6000806040838503121561206957600080fd5b600061207785828601611f5b565b925050602061208885828601611f5b565b9150509250929050565b6000806000606084860312156120a757600080fd5b60006120b586828701611f5b565b93505060206120c686828701611f5b565b92505060406120d786828701612003565b9150509250925092565b600080600080608085870312156120f757600080fd5b600061210587828801611f5b565b945050602061211687828801611f5b565b935050604061212787828801612003565b925050606085013567ffffffffffffffff81111561214457600080fd5b61215087828801611faf565b91505092959194509250565b6000806040838503121561216f57600080fd5b600061217d85828601611f5b565b925050602061218e85828601611f70565b9150509250929050565b6000806000606084860312156121ad57600080fd5b60006121bb86828701611f5b565b935050602084013567ffffffffffffffff8111156121d857600080fd5b6121e486828701611fd9565b92505060406121f586828701612018565b9150509250925092565b6000806040838503121561221257600080fd5b600061222085828601611f5b565b925050602061223185828601612003565b9150509250929050565b60006020828403121561224d57600080fd5b600061225b84828501611f85565b91505092915050565b60006020828403121561227657600080fd5b600061228484828501611f9a565b91505092915050565b60006020828403121561229f57600080fd5b60006122ad84828501612003565b91505092915050565b600080604083850312156122c957600080fd5b60006122d785828601612003565b92505060206122e885828601612003565b9150509250929050565b6122fb81612b63565b82525050565b61230a81612b75565b82525050565b600061231b82612a0b565b6123258185612a21565b9350612335818560208601612bfe565b61233e81612dca565b840191505092915050565b600061235482612a16565b61235e8185612a32565b935061236e818560208601612bfe565b61237781612dca565b840191505092915050565b600061238d82612a16565b6123978185612a43565b93506123a7818560208601612bfe565b80840191505092915050565b60006123c0603283612a32565b91506123cb82612ddb565b604082019050919050565b60006123e3602583612a32565b91506123ee82612e2a565b604082019050919050565b6000612406601c83612a32565b915061241182612e79565b602082019050919050565b6000612429602483612a32565b915061243482612ea2565b604082019050919050565b600061244c601983612a32565b915061245782612ef1565b602082019050919050565b600061246f602c83612a32565b915061247a82612f1a565b604082019050919050565b6000612492603883612a32565b915061249d82612f69565b604082019050919050565b60006124b5602a83612a32565b91506124c082612fb8565b604082019050919050565b60006124d8602983612a32565b91506124e382613007565b604082019050919050565b60006124fb602e83612a32565b915061250682613056565b604082019050919050565b600061251e602083612a32565b9150612529826130a5565b602082019050919050565b6000612541603183612a32565b915061254c826130ce565b604082019050919050565b6000612564602c83612a32565b915061256f8261311d565b604082019050919050565b6000612587602f83612a32565b91506125928261316c565b604082019050919050565b60006125aa602183612a32565b91506125b5826131bb565b604082019050919050565b60006125cd603183612a32565b91506125d88261320a565b604082019050919050565b60006125f0602a83612a32565b91506125fb82613259565b604082019050919050565b6000612613601983612a32565b915061261e826132a8565b602082019050919050565b61263281612bcd565b82525050565b60006126448285612382565b91506126508284612382565b91508190509392505050565b600060208201905061267160008301846122f2565b92915050565b600060808201905061268c60008301876122f2565b61269960208301866122f2565b6126a66040830185612629565b81810360608301526126b88184612310565b905095945050505050565b60006040820190506126d860008301856122f2565b6126e56020830184612629565b9392505050565b60006020820190506127016000830184612301565b92915050565b600060208201905081810360008301526127218184612349565b905092915050565b60006020820190508181036000830152612742816123b3565b9050919050565b60006020820190508181036000830152612762816123d6565b9050919050565b60006020820190508181036000830152612782816123f9565b9050919050565b600060208201905081810360008301526127a28161241c565b9050919050565b600060208201905081810360008301526127c28161243f565b9050919050565b600060208201905081810360008301526127e281612462565b9050919050565b6000602082019050818103600083015261280281612485565b9050919050565b60006020820190508181036000830152612822816124a8565b9050919050565b60006020820190508181036000830152612842816124cb565b9050919050565b60006020820190508181036000830152612862816124ee565b9050919050565b6000602082019050818103600083015261288281612511565b9050919050565b600060208201905081810360008301526128a281612534565b9050919050565b600060208201905081810360008301526128c281612557565b9050919050565b600060208201905081810360008301526128e28161257a565b9050919050565b600060208201905081810360008301526129028161259d565b9050919050565b60006020820190508181036000830152612922816125c0565b9050919050565b60006020820190508181036000830152612942816125e3565b9050919050565b6000602082019050818103600083015261296281612606565b9050919050565b600060208201905061297e6000830184612629565b92915050565b600061298e61299f565b905061299a8282612c63565b919050565b6000604051905090565b600067ffffffffffffffff8211156129c4576129c3612d9b565b5b6129cd82612dca565b9050602081019050919050565b600067ffffffffffffffff8211156129f5576129f4612d9b565b5b6129fe82612dca565b9050602081019050919050565b600081519050919050565b600081519050919050565b600082825260208201905092915050565b600082825260208201905092915050565b600081905092915050565b6000612a5982612bcd565b9150612a6483612bcd565b9250827fffffffffffffffffffffffffffffffffffffffffffffffffffffffffffffffff03821115612a9957612a98612d0e565b5b828201905092915050565b6000612aaf82612bcd565b9150612aba83612bcd565b925082612aca57612ac9612d3d565b5b828204905092915050565b6000612ae082612bcd565b9150612aeb83612bcd565b9250817fffffffffffffffffffffffffffffffffffffffffffffffffffffffffffffffff0483118215151615612b2457612b23612d0e565b5b828202905092915050565b6000612b3a82612bcd565b9150612b4583612bcd565b925082821015612b5857612b57612d0e565b5b828203905092915050565b6000612b6e82612bad565b9050919050565b60008115159050919050565b60007fffffffff0000000000000000000000000000000000000000000000000000000082169050919050565b600073ffffffffffffffffffffffffffffffffffffffff82169050919050565b6000819050919050565b60006bffffffffffffffffffffffff82169050919050565b82818337600083830152505050565b60005b83811015612c1c578082015181840152602081019050612c01565b83811115612c2b576000848401525b50505050565b60006002820490506001821680612c4957607f821691505b60208210811415612c5d57612c5c612d6c565b5b50919050565b612c6c82612dca565b810181811067ffffffffffffffff82111715612c8b57612c8a612d9b565b5b80604052505050565b6000612c9f82612bcd565b91507fffffffffffffffffffffffffffffffffffffffffffffffffffffffffffffffff821415612cd257612cd1612d0e565b5b600182019050919050565b6000612ce882612bcd565b9150612cf383612bcd565b925082612d0357612d02612d3d565b5b828206905092915050565b7f4e487b7100000000000000000000000000000000000000000000000000000000600052601160045260246000fd5b7f4e487b7100000000000000000000000000000000000000000000000000000000600052601260045260246000fd5b7f4e487b7100000000000000000000000000000000000000000000000000000000600052602260045260246000fd5b7f4e487b7100000000000000000000000000000000000000000000000000000000600052604160045260246000fd5b6000601f19601f8301169050919050565b7f4552433732313a207472616e7366657220746f206e6f6e20455243373231526560008201527f63656976657220696d706c656d656e7465720000000000000000000000000000602082015250565b7f4552433732313a207472616e736665722066726f6d20696e636f72726563742060008201527f6f776e6572000000000000000000000000000000000000000000000000000000602082015250565b7f4552433732313a20746f6b656e20616c7265616479206d696e74656400000000600082015250565b7f4552433732313a207472616e7366657220746f20746865207a65726f2061646460008201527f7265737300000000000000000000000000000000000000000000000000000000602082015250565b7f4552433732313a20617070726f766520746f2063616c6c657200000000000000600082015250565b7f4552433732313a206f70657261746f7220717565727920666f72206e6f6e657860008201527f697374656e7420746f6b656e0000000000000000000000000000000000000000602082015250565b7f4552433732313a20617070726f76652063616c6c6572206973206e6f74206f7760008201527f6e6572206e6f7220617070726f76656420666f7220616c6c0000000000000000602082015250565b7f4552433732313a2062616c616e636520717565727920666f7220746865207a6560008201527f726f206164647265737300000000000000000000000000000000000000000000602082015250565b7f4552433732313a206f776e657220717565727920666f72206e6f6e657869737460008201527f656e7420746f6b656e0000000000000000000000000000000000000000000000602082015250565b7f45524337323155524953746f726167653a2055524920736574206f66206e6f6e60008201527f6578697374656e7420746f6b656e000000000000000000000000000000000000602082015250565b7f4552433732313a206d696e7420746f20746865207a65726f2061646472657373600082015250565b7f45524337323155524953746f726167653a2055524920717565727920666f722060008201527f6e6f6e6578697374656e7420746f6b656e000000000000000000000000000000602082015250565b7f4552433732313a20617070726f76656420717565727920666f72206e6f6e657860008201527f697374656e7420746f6b656e0000000000000000000000000000000000000000602082015250565b7f4552433732314d657461646174613a2055524920717565727920666f72206e6f60008201527f6e6578697374656e7420746f6b656e0000000000000000000000000000000000602082015250565b7f4552433732313a20617070726f76616c20746f2063757272656e74206f776e6560008201527f7200000000000000000000000000000000000000000000000000000000000000602082015250565b7f4552433732313a207472616e736665722063616c6c6572206973206e6f74206f60008201527f776e6572206e6f7220617070726f766564000000000000000000000000000000602082015250565b7f455243323938313a20726f79616c7479206665652077696c6c2065786365656460008201527f2073616c65507269636500000000000000000000000000000000000000000000602082015250565b7f455243323938313a20696e76616c696420726563656976657200000000000000600082015250565b6132da81612b63565b81146132e557600080fd5b50565b6132f181612b75565b81146132fc57600080fd5b50565b61330881612b81565b811461331357600080fd5b50565b61331f81612bcd565b811461332a57600080fd5b50565b61333681612bd7565b811461334157600080fd5b5056fea2646970667358221220e629abc9118a5aa0672a6a62a945112ea112b5970b0dca3d83d82be678d70fb464736f6c63430008040033",
  "linkReferences": {},
  "deployedLinkReferences": {}
}